{
	"DePinFilecoin/AIModelSubscribe.sol": {
		"AIModelSubscribe": {
			"abi": [
				{
					"inputs": [
						{
							"internalType": "address",
							"name": "erc20Address",
							"type": "address"
						},
						{
							"internalType": "address",
							"name": "_aiModelContract",
							"type": "address"
						},
						{
							"internalType": "address",
							"name": "_owner",
							"type": "address"
						},
						{
							"internalType": "uint256",
							"name": "_fee",
							"type": "uint256"
						}
					],
					"stateMutability": "nonpayable",
					"type": "constructor"
				},
				{
					"inputs": [],
					"name": "execute",
					"outputs": [],
					"stateMutability": "payable",
					"type": "function"
				},
				{
					"inputs": [],
					"name": "fee",
					"outputs": [
						{
							"internalType": "uint256",
							"name": "",
							"type": "uint256"
						}
					],
					"stateMutability": "view",
					"type": "function"
				},
				{
					"inputs": [],
					"name": "getStake",
					"outputs": [],
					"stateMutability": "nonpayable",
					"type": "function"
				},
				{
					"inputs": [],
					"name": "subscribe",
					"outputs": [],
					"stateMutability": "payable",
					"type": "function"
				}
			],
			"devdoc": {
				"kind": "dev",
				"methods": {},
				"version": 1
			},
			"evm": {
				"assembly": "    /* \"DePinFilecoin/AIModelSubscribe.sol\":215:1404  contract AIModelSubscribe {... */\n  mstore(0x40, 0x80)\n    /* \"DePinFilecoin/AIModelSubscribe.sol\":383:603  constructor(address erc20Address,address _aiModelContract,address _owner,uint256 _fee) {... */\n  callvalue\n  dup1\n  iszero\n  tag_1\n  jumpi\n  0x00\n  dup1\n  revert\ntag_1:\n  pop\n  mload(0x40)\n  sub(codesize, bytecodeSize)\n  dup1\n  bytecodeSize\n  dup4\n  codecopy\n  dup2\n  dup2\n  add\n  0x40\n  mstore\n  dup2\n  add\n  swap1\n  tag_2\n  swap2\n  swap1\n  tag_3\n  jump\t// in\ntag_2:\n    /* \"DePinFilecoin/AIModelSubscribe.sol\":498:514  _aiModelContract */\n  dup3\n    /* \"DePinFilecoin/AIModelSubscribe.sol\":480:495  aiModelContract */\n  0x00\n  dup1\n    /* \"DePinFilecoin/AIModelSubscribe.sol\":480:514  aiModelContract = _aiModelContract */\n  0x0100\n  exp\n  dup2\n  sload\n  dup2\n  0xffffffffffffffffffffffffffffffffffffffff\n  mul\n  not\n  and\n  swap1\n  dup4\n  0xffffffffffffffffffffffffffffffffffffffff\n  and\n  mul\n  or\n  swap1\n  sstore\n  pop\n    /* \"DePinFilecoin/AIModelSubscribe.sol\":532:538  _owner */\n  dup2\n    /* \"DePinFilecoin/AIModelSubscribe.sol\":524:529  owner */\n  0x01\n  0x00\n    /* \"DePinFilecoin/AIModelSubscribe.sol\":524:538  owner = _owner */\n  0x0100\n  exp\n  dup2\n  sload\n  dup2\n  0xffffffffffffffffffffffffffffffffffffffff\n  mul\n  not\n  and\n  swap1\n  dup4\n  0xffffffffffffffffffffffffffffffffffffffff\n  and\n  mul\n  or\n  swap1\n  sstore\n  pop\n    /* \"DePinFilecoin/AIModelSubscribe.sol\":554:558  _fee */\n  dup1\n    /* \"DePinFilecoin/AIModelSubscribe.sol\":548:551  fee */\n  0x02\n    /* \"DePinFilecoin/AIModelSubscribe.sol\":548:558  fee = _fee */\n  dup2\n  swap1\n  sstore\n  pop\n    /* \"DePinFilecoin/AIModelSubscribe.sol\":583:595  erc20Address */\n  dup4\n    /* \"DePinFilecoin/AIModelSubscribe.sol\":568:573  erc20 */\n  0x03\n  0x00\n    /* \"DePinFilecoin/AIModelSubscribe.sol\":568:596  erc20 = IERC20(erc20Address) */\n  0x0100\n  exp\n  dup2\n  sload\n  dup2\n  0xffffffffffffffffffffffffffffffffffffffff\n  mul\n  not\n  and\n  swap1\n  dup4\n  0xffffffffffffffffffffffffffffffffffffffff\n  and\n  mul\n  or\n  swap1\n  sstore\n  pop\n    /* \"DePinFilecoin/AIModelSubscribe.sol\":383:603  constructor(address erc20Address,address _aiModelContract,address _owner,uint256 _fee) {... */\n  pop\n  pop\n  pop\n  pop\n    /* \"DePinFilecoin/AIModelSubscribe.sol\":215:1404  contract AIModelSubscribe {... */\n  jump(tag_6)\n    /* \"#utility.yul\":88:205   */\ntag_8:\n    /* \"#utility.yul\":197:198   */\n  0x00\n    /* \"#utility.yul\":194:195   */\n  dup1\n    /* \"#utility.yul\":187:199   */\n  revert\n    /* \"#utility.yul\":334:460   */\ntag_10:\n    /* \"#utility.yul\":371:378   */\n  0x00\n    /* \"#utility.yul\":411:453   */\n  0xffffffffffffffffffffffffffffffffffffffff\n    /* \"#utility.yul\":404:409   */\n  dup3\n    /* \"#utility.yul\":400:454   */\n  and\n    /* \"#utility.yul\":389:454   */\n  swap1\n  pop\n    /* \"#utility.yul\":334:460   */\n  swap2\n  swap1\n  pop\n  jump\t// out\n    /* \"#utility.yul\":466:562   */\ntag_11:\n    /* \"#utility.yul\":503:510   */\n  0x00\n    /* \"#utility.yul\":532:556   */\n  tag_23\n    /* \"#utility.yul\":550:555   */\n  dup3\n    /* \"#utility.yul\":532:556   */\n  tag_10\n  jump\t// in\ntag_23:\n    /* \"#utility.yul\":521:556   */\n  swap1\n  pop\n    /* \"#utility.yul\":466:562   */\n  swap2\n  swap1\n  pop\n  jump\t// out\n    /* \"#utility.yul\":568:690   */\ntag_12:\n    /* \"#utility.yul\":641:665   */\n  tag_25\n    /* \"#utility.yul\":659:664   */\n  dup2\n    /* \"#utility.yul\":641:665   */\n  tag_11\n  jump\t// in\ntag_25:\n    /* \"#utility.yul\":634:639   */\n  dup2\n    /* \"#utility.yul\":631:666   */\n  eq\n    /* \"#utility.yul\":621:684   */\n  tag_26\n  jumpi\n    /* \"#utility.yul\":680:681   */\n  0x00\n    /* \"#utility.yul\":677:678   */\n  dup1\n    /* \"#utility.yul\":670:682   */\n  revert\n    /* \"#utility.yul\":621:684   */\ntag_26:\n    /* \"#utility.yul\":568:690   */\n  pop\n  jump\t// out\n    /* \"#utility.yul\":696:839   */\ntag_13:\n    /* \"#utility.yul\":753:758   */\n  0x00\n    /* \"#utility.yul\":784:790   */\n  dup2\n    /* \"#utility.yul\":778:791   */\n  mload\n    /* \"#utility.yul\":769:791   */\n  swap1\n  pop\n    /* \"#utility.yul\":800:833   */\n  tag_28\n    /* \"#utility.yul\":827:832   */\n  dup2\n    /* \"#utility.yul\":800:833   */\n  tag_12\n  jump\t// in\ntag_28:\n    /* \"#utility.yul\":696:839   */\n  swap3\n  swap2\n  pop\n  pop\n  jump\t// out\n    /* \"#utility.yul\":845:922   */\ntag_14:\n    /* \"#utility.yul\":882:889   */\n  0x00\n    /* \"#utility.yul\":911:916   */\n  dup2\n    /* \"#utility.yul\":900:916   */\n  swap1\n  pop\n    /* \"#utility.yul\":845:922   */\n  swap2\n  swap1\n  pop\n  jump\t// out\n    /* \"#utility.yul\":928:1050   */\ntag_15:\n    /* \"#utility.yul\":1001:1025   */\n  tag_31\n    /* \"#utility.yul\":1019:1024   */\n  dup2\n    /* \"#utility.yul\":1001:1025   */\n  tag_14\n  jump\t// in\ntag_31:\n    /* \"#utility.yul\":994:999   */\n  dup2\n    /* \"#utility.yul\":991:1026   */\n  eq\n    /* \"#utility.yul\":981:1044   */\n  tag_32\n  jumpi\n    /* \"#utility.yul\":1040:1041   */\n  0x00\n    /* \"#utility.yul\":1037:1038   */\n  dup1\n    /* \"#utility.yul\":1030:1042   */\n  revert\n    /* \"#utility.yul\":981:1044   */\ntag_32:\n    /* \"#utility.yul\":928:1050   */\n  pop\n  jump\t// out\n    /* \"#utility.yul\":1056:1199   */\ntag_16:\n    /* \"#utility.yul\":1113:1118   */\n  0x00\n    /* \"#utility.yul\":1144:1150   */\n  dup2\n    /* \"#utility.yul\":1138:1151   */\n  mload\n    /* \"#utility.yul\":1129:1151   */\n  swap1\n  pop\n    /* \"#utility.yul\":1160:1193   */\n  tag_34\n    /* \"#utility.yul\":1187:1192   */\n  dup2\n    /* \"#utility.yul\":1160:1193   */\n  tag_15\n  jump\t// in\ntag_34:\n    /* \"#utility.yul\":1056:1199   */\n  swap3\n  swap2\n  pop\n  pop\n  jump\t// out\n    /* \"#utility.yul\":1205:2025   */\ntag_3:\n    /* \"#utility.yul\":1302:1308   */\n  0x00\n    /* \"#utility.yul\":1310:1316   */\n  dup1\n    /* \"#utility.yul\":1318:1324   */\n  0x00\n    /* \"#utility.yul\":1326:1332   */\n  dup1\n    /* \"#utility.yul\":1375:1378   */\n  0x80\n    /* \"#utility.yul\":1363:1372   */\n  dup6\n    /* \"#utility.yul\":1354:1361   */\n  dup8\n    /* \"#utility.yul\":1350:1373   */\n  sub\n    /* \"#utility.yul\":1346:1379   */\n  slt\n    /* \"#utility.yul\":1343:1463   */\n  iszero\n  tag_36\n  jumpi\n    /* \"#utility.yul\":1382:1461   */\n  tag_37\n  tag_8\n  jump\t// in\ntag_37:\n    /* \"#utility.yul\":1343:1463   */\ntag_36:\n    /* \"#utility.yul\":1502:1503   */\n  0x00\n    /* \"#utility.yul\":1527:1591   */\n  tag_38\n    /* \"#utility.yul\":1583:1590   */\n  dup8\n    /* \"#utility.yul\":1574:1580   */\n  dup3\n    /* \"#utility.yul\":1563:1572   */\n  dup9\n    /* \"#utility.yul\":1559:1581   */\n  add\n    /* \"#utility.yul\":1527:1591   */\n  tag_13\n  jump\t// in\ntag_38:\n    /* \"#utility.yul\":1517:1591   */\n  swap5\n  pop\n    /* \"#utility.yul\":1473:1601   */\n  pop\n    /* \"#utility.yul\":1640:1642   */\n  0x20\n    /* \"#utility.yul\":1666:1730   */\n  tag_39\n    /* \"#utility.yul\":1722:1729   */\n  dup8\n    /* \"#utility.yul\":1713:1719   */\n  dup3\n    /* \"#utility.yul\":1702:1711   */\n  dup9\n    /* \"#utility.yul\":1698:1720   */\n  add\n    /* \"#utility.yul\":1666:1730   */\n  tag_13\n  jump\t// in\ntag_39:\n    /* \"#utility.yul\":1656:1730   */\n  swap4\n  pop\n    /* \"#utility.yul\":1611:1740   */\n  pop\n    /* \"#utility.yul\":1779:1781   */\n  0x40\n    /* \"#utility.yul\":1805:1869   */\n  tag_40\n    /* \"#utility.yul\":1861:1868   */\n  dup8\n    /* \"#utility.yul\":1852:1858   */\n  dup3\n    /* \"#utility.yul\":1841:1850   */\n  dup9\n    /* \"#utility.yul\":1837:1859   */\n  add\n    /* \"#utility.yul\":1805:1869   */\n  tag_13\n  jump\t// in\ntag_40:\n    /* \"#utility.yul\":1795:1869   */\n  swap3\n  pop\n    /* \"#utility.yul\":1750:1879   */\n  pop\n    /* \"#utility.yul\":1918:1920   */\n  0x60\n    /* \"#utility.yul\":1944:2008   */\n  tag_41\n    /* \"#utility.yul\":2000:2007   */\n  dup8\n    /* \"#utility.yul\":1991:1997   */\n  dup3\n    /* \"#utility.yul\":1980:1989   */\n  dup9\n    /* \"#utility.yul\":1976:1998   */\n  add\n    /* \"#utility.yul\":1944:2008   */\n  tag_16\n  jump\t// in\ntag_41:\n    /* \"#utility.yul\":1934:2008   */\n  swap2\n  pop\n    /* \"#utility.yul\":1889:2018   */\n  pop\n    /* \"#utility.yul\":1205:2025   */\n  swap3\n  swap6\n  swap2\n  swap5\n  pop\n  swap3\n  pop\n  jump\t// out\n    /* \"DePinFilecoin/AIModelSubscribe.sol\":215:1404  contract AIModelSubscribe {... */\ntag_6:\n  dataSize(sub_0)\n  dup1\n  dataOffset(sub_0)\n  0x00\n  codecopy\n  0x00\n  return\nstop\n\nsub_0: assembly {\n        /* \"DePinFilecoin/AIModelSubscribe.sol\":215:1404  contract AIModelSubscribe {... */\n      mstore(0x40, 0x80)\n      jumpi(tag_1, lt(calldatasize, 0x04))\n      shr(0xe0, calldataload(0x00))\n      dup1\n      0x61461954\n      eq\n      tag_2\n      jumpi\n      dup1\n      0x8f449a05\n      eq\n      tag_3\n      jumpi\n      dup1\n      0xddca3f43\n      eq\n      tag_4\n      jumpi\n      dup1\n      0xfc0e3d90\n      eq\n      tag_5\n      jumpi\n    tag_1:\n      0x00\n      dup1\n      revert\n        /* \"DePinFilecoin/AIModelSubscribe.sol\":1186:1289  function execute() external payable onlySubscriber {... */\n    tag_2:\n      tag_6\n      tag_7\n      jump\t// in\n    tag_6:\n      stop\n        /* \"DePinFilecoin/AIModelSubscribe.sol\":870:1180  function subscribe() external payable {... */\n    tag_3:\n      tag_8\n      tag_9\n      jump\t// in\n    tag_8:\n      stop\n        /* \"DePinFilecoin/AIModelSubscribe.sol\":296:314  uint256 public fee */\n    tag_4:\n      callvalue\n      dup1\n      iszero\n      tag_10\n      jumpi\n      0x00\n      dup1\n      revert\n    tag_10:\n      pop\n      tag_11\n      tag_12\n      jump\t// in\n    tag_11:\n      mload(0x40)\n      tag_13\n      swap2\n      swap1\n      tag_14\n      jump\t// in\n    tag_13:\n      mload(0x40)\n      dup1\n      swap2\n      sub\n      swap1\n      return\n        /* \"DePinFilecoin/AIModelSubscribe.sol\":1295:1402  function getStake() public onlyOwner {... */\n    tag_5:\n      callvalue\n      dup1\n      iszero\n      tag_15\n      jumpi\n      0x00\n      dup1\n      revert\n    tag_15:\n      pop\n      tag_16\n      tag_17\n      jump\t// in\n    tag_16:\n      stop\n        /* \"DePinFilecoin/AIModelSubscribe.sol\":1186:1289  function execute() external payable onlySubscriber {... */\n    tag_7:\n        /* \"DePinFilecoin/AIModelSubscribe.sol\":814:818  true */\n      0x01\n        /* \"DePinFilecoin/AIModelSubscribe.sol\":787:818  subscribers[msg.sender] == true */\n      iszero\n      iszero\n        /* \"DePinFilecoin/AIModelSubscribe.sol\":787:798  subscribers */\n      0x04\n        /* \"DePinFilecoin/AIModelSubscribe.sol\":787:810  subscribers[msg.sender] */\n      0x00\n        /* \"DePinFilecoin/AIModelSubscribe.sol\":799:809  msg.sender */\n      caller\n        /* \"DePinFilecoin/AIModelSubscribe.sol\":787:810  subscribers[msg.sender] */\n      0xffffffffffffffffffffffffffffffffffffffff\n      and\n      0xffffffffffffffffffffffffffffffffffffffff\n      and\n      dup2\n      mstore\n      0x20\n      add\n      swap1\n      dup2\n      mstore\n      0x20\n      add\n      0x00\n      keccak256\n      0x00\n      swap1\n      sload\n      swap1\n      0x0100\n      exp\n      swap1\n      div\n      0xff\n      and\n        /* \"DePinFilecoin/AIModelSubscribe.sol\":787:818  subscribers[msg.sender] == true */\n      iszero\n      iszero\n      eq\n        /* \"DePinFilecoin/AIModelSubscribe.sol\":779:846  require(subscribers[msg.sender] == true, \"You must subscibe first\") */\n      tag_19\n      jumpi\n      mload(0x40)\n      0x08c379a000000000000000000000000000000000000000000000000000000000\n      dup2\n      mstore\n      0x04\n      add\n      tag_20\n      swap1\n      tag_21\n      jump\t// in\n    tag_20:\n      mload(0x40)\n      dup1\n      swap2\n      sub\n      swap1\n      revert\n    tag_19:\n        /* \"DePinFilecoin/AIModelSubscribe.sol\":1256:1271  aiModelContract */\n      0x00\n      dup1\n      sload\n      swap1\n      0x0100\n      exp\n      swap1\n      div\n      0xffffffffffffffffffffffffffffffffffffffff\n      and\n        /* \"DePinFilecoin/AIModelSubscribe.sol\":1247:1280  IAIModel(aiModelContract).execute */\n      0xffffffffffffffffffffffffffffffffffffffff\n      and\n      0x61461954\n        /* \"DePinFilecoin/AIModelSubscribe.sol\":1247:1282  IAIModel(aiModelContract).execute() */\n      mload(0x40)\n      dup2\n      0xffffffff\n      and\n      0xe0\n      shl\n      dup2\n      mstore\n      0x04\n      add\n      0x00\n      mload(0x40)\n      dup1\n      dup4\n      sub\n      dup2\n      0x00\n      dup8\n      dup1\n      extcodesize\n      iszero\n      dup1\n      iszero\n      tag_23\n      jumpi\n      0x00\n      dup1\n      revert\n    tag_23:\n      pop\n      gas\n      call\n      iszero\n      dup1\n      iszero\n      tag_25\n      jumpi\n      returndatasize\n      0x00\n      dup1\n      returndatacopy\n      revert(0x00, returndatasize)\n    tag_25:\n      pop\n      pop\n      pop\n      pop\n        /* \"DePinFilecoin/AIModelSubscribe.sol\":1186:1289  function execute() external payable onlySubscriber {... */\n      jump\t// out\n        /* \"DePinFilecoin/AIModelSubscribe.sol\":870:1180  function subscribe() external payable {... */\n    tag_9:\n        /* \"DePinFilecoin/AIModelSubscribe.sol\":953:958  false */\n      0x00\n        /* \"DePinFilecoin/AIModelSubscribe.sol\":926:958  subscribers[msg.sender] == false */\n      iszero\n      iszero\n        /* \"DePinFilecoin/AIModelSubscribe.sol\":926:937  subscribers */\n      0x04\n        /* \"DePinFilecoin/AIModelSubscribe.sol\":926:949  subscribers[msg.sender] */\n      0x00\n        /* \"DePinFilecoin/AIModelSubscribe.sol\":938:948  msg.sender */\n      caller\n        /* \"DePinFilecoin/AIModelSubscribe.sol\":926:949  subscribers[msg.sender] */\n      0xffffffffffffffffffffffffffffffffffffffff\n      and\n      0xffffffffffffffffffffffffffffffffffffffff\n      and\n      dup2\n      mstore\n      0x20\n      add\n      swap1\n      dup2\n      mstore\n      0x20\n      add\n      0x00\n      keccak256\n      0x00\n      swap1\n      sload\n      swap1\n      0x0100\n      exp\n      swap1\n      div\n      0xff\n      and\n        /* \"DePinFilecoin/AIModelSubscribe.sol\":926:958  subscribers[msg.sender] == false */\n      iszero\n      iszero\n      eq\n        /* \"DePinFilecoin/AIModelSubscribe.sol\":918:989  require(subscribers[msg.sender] == false,\"You have already subscribed\") */\n      tag_27\n      jumpi\n      mload(0x40)\n      0x08c379a000000000000000000000000000000000000000000000000000000000\n      dup2\n      mstore\n      0x04\n      add\n      tag_28\n      swap1\n      tag_29\n      jump\t// in\n    tag_28:\n      mload(0x40)\n      dup1\n      swap2\n      sub\n      swap1\n      revert\n    tag_27:\n        /* \"DePinFilecoin/AIModelSubscribe.sol\":1019:1022  fee */\n      sload(0x02)\n        /* \"DePinFilecoin/AIModelSubscribe.sol\":1007:1016  msg.value */\n      callvalue\n        /* \"DePinFilecoin/AIModelSubscribe.sol\":1007:1022  msg.value > fee */\n      gt\n        /* \"DePinFilecoin/AIModelSubscribe.sol\":999:1073  require(msg.value > fee, \"You don't have enought fee to pay subscription\") */\n      tag_30\n      jumpi\n      mload(0x40)\n      0x08c379a000000000000000000000000000000000000000000000000000000000\n      dup2\n      mstore\n      0x04\n      add\n      tag_31\n      swap1\n      tag_32\n      jump\t// in\n    tag_31:\n      mload(0x40)\n      dup1\n      swap2\n      sub\n      swap1\n      revert\n    tag_30:\n        /* \"DePinFilecoin/AIModelSubscribe.sol\":1083:1088  erc20 */\n      0x03\n      0x00\n      swap1\n      sload\n      swap1\n      0x0100\n      exp\n      swap1\n      div\n      0xffffffffffffffffffffffffffffffffffffffff\n      and\n        /* \"DePinFilecoin/AIModelSubscribe.sol\":1083:1101  erc20.transferFrom */\n      0xffffffffffffffffffffffffffffffffffffffff\n      and\n      0x23b872dd\n        /* \"DePinFilecoin/AIModelSubscribe.sol\":1102:1112  msg.sender */\n      caller\n        /* \"DePinFilecoin/AIModelSubscribe.sol\":1122:1126  this */\n      address\n        /* \"DePinFilecoin/AIModelSubscribe.sol\":1129:1132  fee */\n      sload(0x02)\n        /* \"DePinFilecoin/AIModelSubscribe.sol\":1083:1133  erc20.transferFrom(msg.sender, address(this), fee) */\n      mload(0x40)\n      dup5\n      0xffffffff\n      and\n      0xe0\n      shl\n      dup2\n      mstore\n      0x04\n      add\n      tag_33\n      swap4\n      swap3\n      swap2\n      swap1\n      tag_34\n      jump\t// in\n    tag_33:\n      0x20\n      mload(0x40)\n      dup1\n      dup4\n      sub\n      dup2\n      0x00\n      dup8\n      gas\n      call\n      iszero\n      dup1\n      iszero\n      tag_36\n      jumpi\n      returndatasize\n      0x00\n      dup1\n      returndatacopy\n      revert(0x00, returndatasize)\n    tag_36:\n      pop\n      pop\n      pop\n      pop\n      mload(0x40)\n      returndatasize\n      not(0x1f)\n      0x1f\n      dup3\n      add\n      and\n      dup3\n      add\n      dup1\n      0x40\n      mstore\n      pop\n      dup2\n      add\n      swap1\n      tag_37\n      swap2\n      swap1\n      tag_38\n      jump\t// in\n    tag_37:\n      pop\n        /* \"DePinFilecoin/AIModelSubscribe.sol\":1169:1173  true */\n      0x01\n        /* \"DePinFilecoin/AIModelSubscribe.sol\":1143:1154  subscribers */\n      0x04\n        /* \"DePinFilecoin/AIModelSubscribe.sol\":1143:1166  subscribers[msg.sender] */\n      0x00\n        /* \"DePinFilecoin/AIModelSubscribe.sol\":1155:1165  msg.sender */\n      caller\n        /* \"DePinFilecoin/AIModelSubscribe.sol\":1143:1166  subscribers[msg.sender] */\n      0xffffffffffffffffffffffffffffffffffffffff\n      and\n      0xffffffffffffffffffffffffffffffffffffffff\n      and\n      dup2\n      mstore\n      0x20\n      add\n      swap1\n      dup2\n      mstore\n      0x20\n      add\n      0x00\n      keccak256\n      0x00\n        /* \"DePinFilecoin/AIModelSubscribe.sol\":1143:1173  subscribers[msg.sender] = true */\n      0x0100\n      exp\n      dup2\n      sload\n      dup2\n      0xff\n      mul\n      not\n      and\n      swap1\n      dup4\n      iszero\n      iszero\n      mul\n      or\n      swap1\n      sstore\n      pop\n        /* \"DePinFilecoin/AIModelSubscribe.sol\":870:1180  function subscribe() external payable {... */\n      jump\t// out\n        /* \"DePinFilecoin/AIModelSubscribe.sol\":296:314  uint256 public fee */\n    tag_12:\n      sload(0x02)\n      dup2\n      jump\t// out\n        /* \"DePinFilecoin/AIModelSubscribe.sol\":1295:1402  function getStake() public onlyOwner {... */\n    tag_17:\n        /* \"DePinFilecoin/AIModelSubscribe.sol\":662:667  owner */\n      0x01\n      0x00\n      swap1\n      sload\n      swap1\n      0x0100\n      exp\n      swap1\n      div\n      0xffffffffffffffffffffffffffffffffffffffff\n      and\n        /* \"DePinFilecoin/AIModelSubscribe.sol\":648:667  msg.sender == owner */\n      0xffffffffffffffffffffffffffffffffffffffff\n      and\n        /* \"DePinFilecoin/AIModelSubscribe.sol\":648:658  msg.sender */\n      caller\n        /* \"DePinFilecoin/AIModelSubscribe.sol\":648:667  msg.sender == owner */\n      0xffffffffffffffffffffffffffffffffffffffff\n      and\n      eq\n        /* \"DePinFilecoin/AIModelSubscribe.sol\":640:719  require(msg.sender == owner, \"Only the executionServer can call this function\") */\n      tag_40\n      jumpi\n      mload(0x40)\n      0x08c379a000000000000000000000000000000000000000000000000000000000\n      dup2\n      mstore\n      0x04\n      add\n      tag_41\n      swap1\n      tag_42\n      jump\t// in\n    tag_41:\n      mload(0x40)\n      dup1\n      swap2\n      sub\n      swap1\n      revert\n    tag_40:\n        /* \"DePinFilecoin/AIModelSubscribe.sol\":1342:1347  erc20 */\n      0x03\n      0x00\n      swap1\n      sload\n      swap1\n      0x0100\n      exp\n      swap1\n      div\n      0xffffffffffffffffffffffffffffffffffffffff\n      and\n        /* \"DePinFilecoin/AIModelSubscribe.sol\":1342:1356  erc20.transfer */\n      0xffffffffffffffffffffffffffffffffffffffff\n      and\n      0xa9059cbb\n        /* \"DePinFilecoin/AIModelSubscribe.sol\":1357:1362  owner */\n      0x01\n      0x00\n      swap1\n      sload\n      swap1\n      0x0100\n      exp\n      swap1\n      div\n      0xffffffffffffffffffffffffffffffffffffffff\n      and\n        /* \"DePinFilecoin/AIModelSubscribe.sol\":1364:1369  erc20 */\n      0x03\n      0x00\n      swap1\n      sload\n      swap1\n      0x0100\n      exp\n      swap1\n      div\n      0xffffffffffffffffffffffffffffffffffffffff\n      and\n        /* \"DePinFilecoin/AIModelSubscribe.sol\":1364:1379  erc20.balanceOf */\n      0xffffffffffffffffffffffffffffffffffffffff\n      and\n      0x70a08231\n        /* \"DePinFilecoin/AIModelSubscribe.sol\":1388:1392  this */\n      address\n        /* \"DePinFilecoin/AIModelSubscribe.sol\":1364:1394  erc20.balanceOf(address(this)) */\n      mload(0x40)\n      dup3\n      0xffffffff\n      and\n      0xe0\n      shl\n      dup2\n      mstore\n      0x04\n      add\n      tag_44\n      swap2\n      swap1\n      tag_45\n      jump\t// in\n    tag_44:\n      0x20\n      mload(0x40)\n      dup1\n      dup4\n      sub\n      dup2\n      dup7\n      gas\n      staticcall\n      iszero\n      dup1\n      iszero\n      tag_47\n      jumpi\n      returndatasize\n      0x00\n      dup1\n      returndatacopy\n      revert(0x00, returndatasize)\n    tag_47:\n      pop\n      pop\n      pop\n      pop\n      mload(0x40)\n      returndatasize\n      not(0x1f)\n      0x1f\n      dup3\n      add\n      and\n      dup3\n      add\n      dup1\n      0x40\n      mstore\n      pop\n      dup2\n      add\n      swap1\n      tag_48\n      swap2\n      swap1\n      tag_49\n      jump\t// in\n    tag_48:\n        /* \"DePinFilecoin/AIModelSubscribe.sol\":1342:1395  erc20.transfer(owner, erc20.balanceOf(address(this))) */\n      mload(0x40)\n      dup4\n      0xffffffff\n      and\n      0xe0\n      shl\n      dup2\n      mstore\n      0x04\n      add\n      tag_50\n      swap3\n      swap2\n      swap1\n      tag_51\n      jump\t// in\n    tag_50:\n      0x20\n      mload(0x40)\n      dup1\n      dup4\n      sub\n      dup2\n      0x00\n      dup8\n      gas\n      call\n      iszero\n      dup1\n      iszero\n      tag_53\n      jumpi\n      returndatasize\n      0x00\n      dup1\n      returndatacopy\n      revert(0x00, returndatasize)\n    tag_53:\n      pop\n      pop\n      pop\n      pop\n      mload(0x40)\n      returndatasize\n      not(0x1f)\n      0x1f\n      dup3\n      add\n      and\n      dup3\n      add\n      dup1\n      0x40\n      mstore\n      pop\n      dup2\n      add\n      swap1\n      tag_54\n      swap2\n      swap1\n      tag_38\n      jump\t// in\n    tag_54:\n      pop\n        /* \"DePinFilecoin/AIModelSubscribe.sol\":1295:1402  function getStake() public onlyOwner {... */\n      jump\t// out\n        /* \"#utility.yul\":7:84   */\n    tag_55:\n        /* \"#utility.yul\":44:51   */\n      0x00\n        /* \"#utility.yul\":73:78   */\n      dup2\n        /* \"#utility.yul\":62:78   */\n      swap1\n      pop\n        /* \"#utility.yul\":7:84   */\n      swap2\n      swap1\n      pop\n      jump\t// out\n        /* \"#utility.yul\":90:208   */\n    tag_56:\n        /* \"#utility.yul\":177:201   */\n      tag_80\n        /* \"#utility.yul\":195:200   */\n      dup2\n        /* \"#utility.yul\":177:201   */\n      tag_55\n      jump\t// in\n    tag_80:\n        /* \"#utility.yul\":172:175   */\n      dup3\n        /* \"#utility.yul\":165:202   */\n      mstore\n        /* \"#utility.yul\":90:208   */\n      pop\n      pop\n      jump\t// out\n        /* \"#utility.yul\":214:436   */\n    tag_14:\n        /* \"#utility.yul\":307:311   */\n      0x00\n        /* \"#utility.yul\":345:347   */\n      0x20\n        /* \"#utility.yul\":334:343   */\n      dup3\n        /* \"#utility.yul\":330:348   */\n      add\n        /* \"#utility.yul\":322:348   */\n      swap1\n      pop\n        /* \"#utility.yul\":358:429   */\n      tag_82\n        /* \"#utility.yul\":426:427   */\n      0x00\n        /* \"#utility.yul\":415:424   */\n      dup4\n        /* \"#utility.yul\":411:428   */\n      add\n        /* \"#utility.yul\":402:408   */\n      dup5\n        /* \"#utility.yul\":358:429   */\n      tag_56\n      jump\t// in\n    tag_82:\n        /* \"#utility.yul\":214:436   */\n      swap3\n      swap2\n      pop\n      pop\n      jump\t// out\n        /* \"#utility.yul\":442:611   */\n    tag_57:\n        /* \"#utility.yul\":526:537   */\n      0x00\n        /* \"#utility.yul\":560:566   */\n      dup3\n        /* \"#utility.yul\":555:558   */\n      dup3\n        /* \"#utility.yul\":548:567   */\n      mstore\n        /* \"#utility.yul\":600:604   */\n      0x20\n        /* \"#utility.yul\":595:598   */\n      dup3\n        /* \"#utility.yul\":591:605   */\n      add\n        /* \"#utility.yul\":576:605   */\n      swap1\n      pop\n        /* \"#utility.yul\":442:611   */\n      swap3\n      swap2\n      pop\n      pop\n      jump\t// out\n        /* \"#utility.yul\":617:790   */\n    tag_58:\n        /* \"#utility.yul\":757:782   */\n      0x596f75206d757374207375627363696265206669727374000000000000000000\n        /* \"#utility.yul\":753:754   */\n      0x00\n        /* \"#utility.yul\":745:751   */\n      dup3\n        /* \"#utility.yul\":741:755   */\n      add\n        /* \"#utility.yul\":734:783   */\n      mstore\n        /* \"#utility.yul\":617:790   */\n      pop\n      jump\t// out\n        /* \"#utility.yul\":796:1162   */\n    tag_59:\n        /* \"#utility.yul\":938:941   */\n      0x00\n        /* \"#utility.yul\":959:1026   */\n      tag_86\n        /* \"#utility.yul\":1023:1025   */\n      0x17\n        /* \"#utility.yul\":1018:1021   */\n      dup4\n        /* \"#utility.yul\":959:1026   */\n      tag_57\n      jump\t// in\n    tag_86:\n        /* \"#utility.yul\":952:1026   */\n      swap2\n      pop\n        /* \"#utility.yul\":1035:1128   */\n      tag_87\n        /* \"#utility.yul\":1124:1127   */\n      dup3\n        /* \"#utility.yul\":1035:1128   */\n      tag_58\n      jump\t// in\n    tag_87:\n        /* \"#utility.yul\":1153:1155   */\n      0x20\n        /* \"#utility.yul\":1148:1151   */\n      dup3\n        /* \"#utility.yul\":1144:1156   */\n      add\n        /* \"#utility.yul\":1137:1156   */\n      swap1\n      pop\n        /* \"#utility.yul\":796:1162   */\n      swap2\n      swap1\n      pop\n      jump\t// out\n        /* \"#utility.yul\":1168:1587   */\n    tag_21:\n        /* \"#utility.yul\":1334:1338   */\n      0x00\n        /* \"#utility.yul\":1372:1374   */\n      0x20\n        /* \"#utility.yul\":1361:1370   */\n      dup3\n        /* \"#utility.yul\":1357:1375   */\n      add\n        /* \"#utility.yul\":1349:1375   */\n      swap1\n      pop\n        /* \"#utility.yul\":1421:1430   */\n      dup2\n        /* \"#utility.yul\":1415:1419   */\n      dup2\n        /* \"#utility.yul\":1411:1431   */\n      sub\n        /* \"#utility.yul\":1407:1408   */\n      0x00\n        /* \"#utility.yul\":1396:1405   */\n      dup4\n        /* \"#utility.yul\":1392:1409   */\n      add\n        /* \"#utility.yul\":1385:1432   */\n      mstore\n        /* \"#utility.yul\":1449:1580   */\n      tag_89\n        /* \"#utility.yul\":1575:1579   */\n      dup2\n        /* \"#utility.yul\":1449:1580   */\n      tag_59\n      jump\t// in\n    tag_89:\n        /* \"#utility.yul\":1441:1580   */\n      swap1\n      pop\n        /* \"#utility.yul\":1168:1587   */\n      swap2\n      swap1\n      pop\n      jump\t// out\n        /* \"#utility.yul\":1593:1770   */\n    tag_60:\n        /* \"#utility.yul\":1733:1762   */\n      0x596f75206861766520616c726561647920737562736372696265640000000000\n        /* \"#utility.yul\":1729:1730   */\n      0x00\n        /* \"#utility.yul\":1721:1727   */\n      dup3\n        /* \"#utility.yul\":1717:1731   */\n      add\n        /* \"#utility.yul\":1710:1763   */\n      mstore\n        /* \"#utility.yul\":1593:1770   */\n      pop\n      jump\t// out\n        /* \"#utility.yul\":1776:2142   */\n    tag_61:\n        /* \"#utility.yul\":1918:1921   */\n      0x00\n        /* \"#utility.yul\":1939:2006   */\n      tag_92\n        /* \"#utility.yul\":2003:2005   */\n      0x1b\n        /* \"#utility.yul\":1998:2001   */\n      dup4\n        /* \"#utility.yul\":1939:2006   */\n      tag_57\n      jump\t// in\n    tag_92:\n        /* \"#utility.yul\":1932:2006   */\n      swap2\n      pop\n        /* \"#utility.yul\":2015:2108   */\n      tag_93\n        /* \"#utility.yul\":2104:2107   */\n      dup3\n        /* \"#utility.yul\":2015:2108   */\n      tag_60\n      jump\t// in\n    tag_93:\n        /* \"#utility.yul\":2133:2135   */\n      0x20\n        /* \"#utility.yul\":2128:2131   */\n      dup3\n        /* \"#utility.yul\":2124:2136   */\n      add\n        /* \"#utility.yul\":2117:2136   */\n      swap1\n      pop\n        /* \"#utility.yul\":1776:2142   */\n      swap2\n      swap1\n      pop\n      jump\t// out\n        /* \"#utility.yul\":2148:2567   */\n    tag_29:\n        /* \"#utility.yul\":2314:2318   */\n      0x00\n        /* \"#utility.yul\":2352:2354   */\n      0x20\n        /* \"#utility.yul\":2341:2350   */\n      dup3\n        /* \"#utility.yul\":2337:2355   */\n      add\n        /* \"#utility.yul\":2329:2355   */\n      swap1\n      pop\n        /* \"#utility.yul\":2401:2410   */\n      dup2\n        /* \"#utility.yul\":2395:2399   */\n      dup2\n        /* \"#utility.yul\":2391:2411   */\n      sub\n        /* \"#utility.yul\":2387:2388   */\n      0x00\n        /* \"#utility.yul\":2376:2385   */\n      dup4\n        /* \"#utility.yul\":2372:2389   */\n      add\n        /* \"#utility.yul\":2365:2412   */\n      mstore\n        /* \"#utility.yul\":2429:2560   */\n      tag_95\n        /* \"#utility.yul\":2555:2559   */\n      dup2\n        /* \"#utility.yul\":2429:2560   */\n      tag_61\n      jump\t// in\n    tag_95:\n        /* \"#utility.yul\":2421:2560   */\n      swap1\n      pop\n        /* \"#utility.yul\":2148:2567   */\n      swap2\n      swap1\n      pop\n      jump\t// out\n        /* \"#utility.yul\":2573:2806   */\n    tag_62:\n        /* \"#utility.yul\":2713:2747   */\n      0x596f7520646f6e2774206861766520656e6f756768742066656520746f207061\n        /* \"#utility.yul\":2709:2710   */\n      0x00\n        /* \"#utility.yul\":2701:2707   */\n      dup3\n        /* \"#utility.yul\":2697:2711   */\n      add\n        /* \"#utility.yul\":2690:2748   */\n      mstore\n        /* \"#utility.yul\":2782:2798   */\n      0x7920737562736372697074696f6e000000000000000000000000000000000000\n        /* \"#utility.yul\":2777:2779   */\n      0x20\n        /* \"#utility.yul\":2769:2775   */\n      dup3\n        /* \"#utility.yul\":2765:2780   */\n      add\n        /* \"#utility.yul\":2758:2799   */\n      mstore\n        /* \"#utility.yul\":2573:2806   */\n      pop\n      jump\t// out\n        /* \"#utility.yul\":2812:3178   */\n    tag_63:\n        /* \"#utility.yul\":2954:2957   */\n      0x00\n        /* \"#utility.yul\":2975:3042   */\n      tag_98\n        /* \"#utility.yul\":3039:3041   */\n      0x2e\n        /* \"#utility.yul\":3034:3037   */\n      dup4\n        /* \"#utility.yul\":2975:3042   */\n      tag_57\n      jump\t// in\n    tag_98:\n        /* \"#utility.yul\":2968:3042   */\n      swap2\n      pop\n        /* \"#utility.yul\":3051:3144   */\n      tag_99\n        /* \"#utility.yul\":3140:3143   */\n      dup3\n        /* \"#utility.yul\":3051:3144   */\n      tag_62\n      jump\t// in\n    tag_99:\n        /* \"#utility.yul\":3169:3171   */\n      0x40\n        /* \"#utility.yul\":3164:3167   */\n      dup3\n        /* \"#utility.yul\":3160:3172   */\n      add\n        /* \"#utility.yul\":3153:3172   */\n      swap1\n      pop\n        /* \"#utility.yul\":2812:3178   */\n      swap2\n      swap1\n      pop\n      jump\t// out\n        /* \"#utility.yul\":3184:3603   */\n    tag_32:\n        /* \"#utility.yul\":3350:3354   */\n      0x00\n        /* \"#utility.yul\":3388:3390   */\n      0x20\n        /* \"#utility.yul\":3377:3386   */\n      dup3\n        /* \"#utility.yul\":3373:3391   */\n      add\n        /* \"#utility.yul\":3365:3391   */\n      swap1\n      pop\n        /* \"#utility.yul\":3437:3446   */\n      dup2\n        /* \"#utility.yul\":3431:3435   */\n      dup2\n        /* \"#utility.yul\":3427:3447   */\n      sub\n        /* \"#utility.yul\":3423:3424   */\n      0x00\n        /* \"#utility.yul\":3412:3421   */\n      dup4\n        /* \"#utility.yul\":3408:3425   */\n      add\n        /* \"#utility.yul\":3401:3448   */\n      mstore\n        /* \"#utility.yul\":3465:3596   */\n      tag_101\n        /* \"#utility.yul\":3591:3595   */\n      dup2\n        /* \"#utility.yul\":3465:3596   */\n      tag_63\n      jump\t// in\n    tag_101:\n        /* \"#utility.yul\":3457:3596   */\n      swap1\n      pop\n        /* \"#utility.yul\":3184:3603   */\n      swap2\n      swap1\n      pop\n      jump\t// out\n        /* \"#utility.yul\":3609:3735   */\n    tag_64:\n        /* \"#utility.yul\":3646:3653   */\n      0x00\n        /* \"#utility.yul\":3686:3728   */\n      0xffffffffffffffffffffffffffffffffffffffff\n        /* \"#utility.yul\":3679:3684   */\n      dup3\n        /* \"#utility.yul\":3675:3729   */\n      and\n        /* \"#utility.yul\":3664:3729   */\n      swap1\n      pop\n        /* \"#utility.yul\":3609:3735   */\n      swap2\n      swap1\n      pop\n      jump\t// out\n        /* \"#utility.yul\":3741:3837   */\n    tag_65:\n        /* \"#utility.yul\":3778:3785   */\n      0x00\n        /* \"#utility.yul\":3807:3831   */\n      tag_104\n        /* \"#utility.yul\":3825:3830   */\n      dup3\n        /* \"#utility.yul\":3807:3831   */\n      tag_64\n      jump\t// in\n    tag_104:\n        /* \"#utility.yul\":3796:3831   */\n      swap1\n      pop\n        /* \"#utility.yul\":3741:3837   */\n      swap2\n      swap1\n      pop\n      jump\t// out\n        /* \"#utility.yul\":3843:3961   */\n    tag_66:\n        /* \"#utility.yul\":3930:3954   */\n      tag_106\n        /* \"#utility.yul\":3948:3953   */\n      dup2\n        /* \"#utility.yul\":3930:3954   */\n      tag_65\n      jump\t// in\n    tag_106:\n        /* \"#utility.yul\":3925:3928   */\n      dup3\n        /* \"#utility.yul\":3918:3955   */\n      mstore\n        /* \"#utility.yul\":3843:3961   */\n      pop\n      pop\n      jump\t// out\n        /* \"#utility.yul\":3967:4409   */\n    tag_34:\n        /* \"#utility.yul\":4116:4120   */\n      0x00\n        /* \"#utility.yul\":4154:4156   */\n      0x60\n        /* \"#utility.yul\":4143:4152   */\n      dup3\n        /* \"#utility.yul\":4139:4157   */\n      add\n        /* \"#utility.yul\":4131:4157   */\n      swap1\n      pop\n        /* \"#utility.yul\":4167:4238   */\n      tag_108\n        /* \"#utility.yul\":4235:4236   */\n      0x00\n        /* \"#utility.yul\":4224:4233   */\n      dup4\n        /* \"#utility.yul\":4220:4237   */\n      add\n        /* \"#utility.yul\":4211:4217   */\n      dup7\n        /* \"#utility.yul\":4167:4238   */\n      tag_66\n      jump\t// in\n    tag_108:\n        /* \"#utility.yul\":4248:4320   */\n      tag_109\n        /* \"#utility.yul\":4316:4318   */\n      0x20\n        /* \"#utility.yul\":4305:4314   */\n      dup4\n        /* \"#utility.yul\":4301:4319   */\n      add\n        /* \"#utility.yul\":4292:4298   */\n      dup6\n        /* \"#utility.yul\":4248:4320   */\n      tag_66\n      jump\t// in\n    tag_109:\n        /* \"#utility.yul\":4330:4402   */\n      tag_110\n        /* \"#utility.yul\":4398:4400   */\n      0x40\n        /* \"#utility.yul\":4387:4396   */\n      dup4\n        /* \"#utility.yul\":4383:4401   */\n      add\n        /* \"#utility.yul\":4374:4380   */\n      dup5\n        /* \"#utility.yul\":4330:4402   */\n      tag_56\n      jump\t// in\n    tag_110:\n        /* \"#utility.yul\":3967:4409   */\n      swap5\n      swap4\n      pop\n      pop\n      pop\n      pop\n      jump\t// out\n        /* \"#utility.yul\":4496:4613   */\n    tag_68:\n        /* \"#utility.yul\":4605:4606   */\n      0x00\n        /* \"#utility.yul\":4602:4603   */\n      dup1\n        /* \"#utility.yul\":4595:4607   */\n      revert\n        /* \"#utility.yul\":4742:4832   */\n    tag_70:\n        /* \"#utility.yul\":4776:4783   */\n      0x00\n        /* \"#utility.yul\":4819:4824   */\n      dup2\n        /* \"#utility.yul\":4812:4825   */\n      iszero\n        /* \"#utility.yul\":4805:4826   */\n      iszero\n        /* \"#utility.yul\":4794:4826   */\n      swap1\n      pop\n        /* \"#utility.yul\":4742:4832   */\n      swap2\n      swap1\n      pop\n      jump\t// out\n        /* \"#utility.yul\":4838:4954   */\n    tag_71:\n        /* \"#utility.yul\":4908:4929   */\n      tag_116\n        /* \"#utility.yul\":4923:4928   */\n      dup2\n        /* \"#utility.yul\":4908:4929   */\n      tag_70\n      jump\t// in\n    tag_116:\n        /* \"#utility.yul\":4901:4906   */\n      dup2\n        /* \"#utility.yul\":4898:4930   */\n      eq\n        /* \"#utility.yul\":4888:4948   */\n      tag_117\n      jumpi\n        /* \"#utility.yul\":4944:4945   */\n      0x00\n        /* \"#utility.yul\":4941:4942   */\n      dup1\n        /* \"#utility.yul\":4934:4946   */\n      revert\n        /* \"#utility.yul\":4888:4948   */\n    tag_117:\n        /* \"#utility.yul\":4838:4954   */\n      pop\n      jump\t// out\n        /* \"#utility.yul\":4960:5097   */\n    tag_72:\n        /* \"#utility.yul\":5014:5019   */\n      0x00\n        /* \"#utility.yul\":5045:5051   */\n      dup2\n        /* \"#utility.yul\":5039:5052   */\n      mload\n        /* \"#utility.yul\":5030:5052   */\n      swap1\n      pop\n        /* \"#utility.yul\":5061:5091   */\n      tag_119\n        /* \"#utility.yul\":5085:5090   */\n      dup2\n        /* \"#utility.yul\":5061:5091   */\n      tag_71\n      jump\t// in\n    tag_119:\n        /* \"#utility.yul\":4960:5097   */\n      swap3\n      swap2\n      pop\n      pop\n      jump\t// out\n        /* \"#utility.yul\":5103:5448   */\n    tag_38:\n        /* \"#utility.yul\":5170:5176   */\n      0x00\n        /* \"#utility.yul\":5219:5221   */\n      0x20\n        /* \"#utility.yul\":5207:5216   */\n      dup3\n        /* \"#utility.yul\":5198:5205   */\n      dup5\n        /* \"#utility.yul\":5194:5217   */\n      sub\n        /* \"#utility.yul\":5190:5222   */\n      slt\n        /* \"#utility.yul\":5187:5306   */\n      iszero\n      tag_121\n      jumpi\n        /* \"#utility.yul\":5225:5304   */\n      tag_122\n      tag_68\n      jump\t// in\n    tag_122:\n        /* \"#utility.yul\":5187:5306   */\n    tag_121:\n        /* \"#utility.yul\":5345:5346   */\n      0x00\n        /* \"#utility.yul\":5370:5431   */\n      tag_123\n        /* \"#utility.yul\":5423:5430   */\n      dup5\n        /* \"#utility.yul\":5414:5420   */\n      dup3\n        /* \"#utility.yul\":5403:5412   */\n      dup6\n        /* \"#utility.yul\":5399:5421   */\n      add\n        /* \"#utility.yul\":5370:5431   */\n      tag_72\n      jump\t// in\n    tag_123:\n        /* \"#utility.yul\":5360:5431   */\n      swap2\n      pop\n        /* \"#utility.yul\":5316:5441   */\n      pop\n        /* \"#utility.yul\":5103:5448   */\n      swap3\n      swap2\n      pop\n      pop\n      jump\t// out\n        /* \"#utility.yul\":5454:5688   */\n    tag_73:\n        /* \"#utility.yul\":5594:5628   */\n      0x4f6e6c792074686520657865637574696f6e5365727665722063616e2063616c\n        /* \"#utility.yul\":5590:5591   */\n      0x00\n        /* \"#utility.yul\":5582:5588   */\n      dup3\n        /* \"#utility.yul\":5578:5592   */\n      add\n        /* \"#utility.yul\":5571:5629   */\n      mstore\n        /* \"#utility.yul\":5663:5680   */\n      0x6c20746869732066756e6374696f6e0000000000000000000000000000000000\n        /* \"#utility.yul\":5658:5660   */\n      0x20\n        /* \"#utility.yul\":5650:5656   */\n      dup3\n        /* \"#utility.yul\":5646:5661   */\n      add\n        /* \"#utility.yul\":5639:5681   */\n      mstore\n        /* \"#utility.yul\":5454:5688   */\n      pop\n      jump\t// out\n        /* \"#utility.yul\":5694:6060   */\n    tag_74:\n        /* \"#utility.yul\":5836:5839   */\n      0x00\n        /* \"#utility.yul\":5857:5924   */\n      tag_126\n        /* \"#utility.yul\":5921:5923   */\n      0x2f\n        /* \"#utility.yul\":5916:5919   */\n      dup4\n        /* \"#utility.yul\":5857:5924   */\n      tag_57\n      jump\t// in\n    tag_126:\n        /* \"#utility.yul\":5850:5924   */\n      swap2\n      pop\n        /* \"#utility.yul\":5933:6026   */\n      tag_127\n        /* \"#utility.yul\":6022:6025   */\n      dup3\n        /* \"#utility.yul\":5933:6026   */\n      tag_73\n      jump\t// in\n    tag_127:\n        /* \"#utility.yul\":6051:6053   */\n      0x40\n        /* \"#utility.yul\":6046:6049   */\n      dup3\n        /* \"#utility.yul\":6042:6054   */\n      add\n        /* \"#utility.yul\":6035:6054   */\n      swap1\n      pop\n        /* \"#utility.yul\":5694:6060   */\n      swap2\n      swap1\n      pop\n      jump\t// out\n        /* \"#utility.yul\":6066:6485   */\n    tag_42:\n        /* \"#utility.yul\":6232:6236   */\n      0x00\n        /* \"#utility.yul\":6270:6272   */\n      0x20\n        /* \"#utility.yul\":6259:6268   */\n      dup3\n        /* \"#utility.yul\":6255:6273   */\n      add\n        /* \"#utility.yul\":6247:6273   */\n      swap1\n      pop\n        /* \"#utility.yul\":6319:6328   */\n      dup2\n        /* \"#utility.yul\":6313:6317   */\n      dup2\n        /* \"#utility.yul\":6309:6329   */\n      sub\n        /* \"#utility.yul\":6305:6306   */\n      0x00\n        /* \"#utility.yul\":6294:6303   */\n      dup4\n        /* \"#utility.yul\":6290:6307   */\n      add\n        /* \"#utility.yul\":6283:6330   */\n      mstore\n        /* \"#utility.yul\":6347:6478   */\n      tag_129\n        /* \"#utility.yul\":6473:6477   */\n      dup2\n        /* \"#utility.yul\":6347:6478   */\n      tag_74\n      jump\t// in\n    tag_129:\n        /* \"#utility.yul\":6339:6478   */\n      swap1\n      pop\n        /* \"#utility.yul\":6066:6485   */\n      swap2\n      swap1\n      pop\n      jump\t// out\n        /* \"#utility.yul\":6491:6713   */\n    tag_45:\n        /* \"#utility.yul\":6584:6588   */\n      0x00\n        /* \"#utility.yul\":6622:6624   */\n      0x20\n        /* \"#utility.yul\":6611:6620   */\n      dup3\n        /* \"#utility.yul\":6607:6625   */\n      add\n        /* \"#utility.yul\":6599:6625   */\n      swap1\n      pop\n        /* \"#utility.yul\":6635:6706   */\n      tag_131\n        /* \"#utility.yul\":6703:6704   */\n      0x00\n        /* \"#utility.yul\":6692:6701   */\n      dup4\n        /* \"#utility.yul\":6688:6705   */\n      add\n        /* \"#utility.yul\":6679:6685   */\n      dup5\n        /* \"#utility.yul\":6635:6706   */\n      tag_66\n      jump\t// in\n    tag_131:\n        /* \"#utility.yul\":6491:6713   */\n      swap3\n      swap2\n      pop\n      pop\n      jump\t// out\n        /* \"#utility.yul\":6719:6841   */\n    tag_75:\n        /* \"#utility.yul\":6792:6816   */\n      tag_133\n        /* \"#utility.yul\":6810:6815   */\n      dup2\n        /* \"#utility.yul\":6792:6816   */\n      tag_55\n      jump\t// in\n    tag_133:\n        /* \"#utility.yul\":6785:6790   */\n      dup2\n        /* \"#utility.yul\":6782:6817   */\n      eq\n        /* \"#utility.yul\":6772:6835   */\n      tag_134\n      jumpi\n        /* \"#utility.yul\":6831:6832   */\n      0x00\n        /* \"#utility.yul\":6828:6829   */\n      dup1\n        /* \"#utility.yul\":6821:6833   */\n      revert\n        /* \"#utility.yul\":6772:6835   */\n    tag_134:\n        /* \"#utility.yul\":6719:6841   */\n      pop\n      jump\t// out\n        /* \"#utility.yul\":6847:6990   */\n    tag_76:\n        /* \"#utility.yul\":6904:6909   */\n      0x00\n        /* \"#utility.yul\":6935:6941   */\n      dup2\n        /* \"#utility.yul\":6929:6942   */\n      mload\n        /* \"#utility.yul\":6920:6942   */\n      swap1\n      pop\n        /* \"#utility.yul\":6951:6984   */\n      tag_136\n        /* \"#utility.yul\":6978:6983   */\n      dup2\n        /* \"#utility.yul\":6951:6984   */\n      tag_75\n      jump\t// in\n    tag_136:\n        /* \"#utility.yul\":6847:6990   */\n      swap3\n      swap2\n      pop\n      pop\n      jump\t// out\n        /* \"#utility.yul\":6996:7347   */\n    tag_49:\n        /* \"#utility.yul\":7066:7072   */\n      0x00\n        /* \"#utility.yul\":7115:7117   */\n      0x20\n        /* \"#utility.yul\":7103:7112   */\n      dup3\n        /* \"#utility.yul\":7094:7101   */\n      dup5\n        /* \"#utility.yul\":7090:7113   */\n      sub\n        /* \"#utility.yul\":7086:7118   */\n      slt\n        /* \"#utility.yul\":7083:7202   */\n      iszero\n      tag_138\n      jumpi\n        /* \"#utility.yul\":7121:7200   */\n      tag_139\n      tag_68\n      jump\t// in\n    tag_139:\n        /* \"#utility.yul\":7083:7202   */\n    tag_138:\n        /* \"#utility.yul\":7241:7242   */\n      0x00\n        /* \"#utility.yul\":7266:7330   */\n      tag_140\n        /* \"#utility.yul\":7322:7329   */\n      dup5\n        /* \"#utility.yul\":7313:7319   */\n      dup3\n        /* \"#utility.yul\":7302:7311   */\n      dup6\n        /* \"#utility.yul\":7298:7320   */\n      add\n        /* \"#utility.yul\":7266:7330   */\n      tag_76\n      jump\t// in\n    tag_140:\n        /* \"#utility.yul\":7256:7330   */\n      swap2\n      pop\n        /* \"#utility.yul\":7212:7340   */\n      pop\n        /* \"#utility.yul\":6996:7347   */\n      swap3\n      swap2\n      pop\n      pop\n      jump\t// out\n        /* \"#utility.yul\":7353:7685   */\n    tag_51:\n        /* \"#utility.yul\":7474:7478   */\n      0x00\n        /* \"#utility.yul\":7512:7514   */\n      0x40\n        /* \"#utility.yul\":7501:7510   */\n      dup3\n        /* \"#utility.yul\":7497:7515   */\n      add\n        /* \"#utility.yul\":7489:7515   */\n      swap1\n      pop\n        /* \"#utility.yul\":7525:7596   */\n      tag_142\n        /* \"#utility.yul\":7593:7594   */\n      0x00\n        /* \"#utility.yul\":7582:7591   */\n      dup4\n        /* \"#utility.yul\":7578:7595   */\n      add\n        /* \"#utility.yul\":7569:7575   */\n      dup6\n        /* \"#utility.yul\":7525:7596   */\n      tag_66\n      jump\t// in\n    tag_142:\n        /* \"#utility.yul\":7606:7678   */\n      tag_143\n        /* \"#utility.yul\":7674:7676   */\n      0x20\n        /* \"#utility.yul\":7663:7672   */\n      dup4\n        /* \"#utility.yul\":7659:7677   */\n      add\n        /* \"#utility.yul\":7650:7656   */\n      dup5\n        /* \"#utility.yul\":7606:7678   */\n      tag_56\n      jump\t// in\n    tag_143:\n        /* \"#utility.yul\":7353:7685   */\n      swap4\n      swap3\n      pop\n      pop\n      pop\n      jump\t// out\n\n    auxdata: 0xa2646970667358221220aa5be9d42e84963bbd529fec540b626be7eb579a0591d37db9758b3fa17120d664736f6c63430008190033\n}\n",
				"bytecode": {
					"linkReferences": {},
					"object": "608060405234801561000f575f80fd5b50604051610b2c380380610b2c83398181016040528101906100319190610191565b825f806101000a81548173ffffffffffffffffffffffffffffffffffffffff021916908373ffffffffffffffffffffffffffffffffffffffff1602179055508160015f6101000a81548173ffffffffffffffffffffffffffffffffffffffff021916908373ffffffffffffffffffffffffffffffffffffffff160217905550806002819055508360035f6101000a81548173ffffffffffffffffffffffffffffffffffffffff021916908373ffffffffffffffffffffffffffffffffffffffff160217905550505050506101f5565b5f80fd5b5f73ffffffffffffffffffffffffffffffffffffffff82169050919050565b5f61012d82610104565b9050919050565b61013d81610123565b8114610147575f80fd5b50565b5f8151905061015881610134565b92915050565b5f819050919050565b6101708161015e565b811461017a575f80fd5b50565b5f8151905061018b81610167565b92915050565b5f805f80608085870312156101a9576101a8610100565b5b5f6101b68782880161014a565b94505060206101c78782880161014a565b93505060406101d88782880161014a565b92505060606101e98782880161017d565b91505092959194509250565b61092a806102025f395ff3fe60806040526004361061003e575f3560e01c806361461954146100425780638f449a051461004c578063ddca3f4314610056578063fc0e3d9014610080575b5f80fd5b61004a610096565b005b6100546101a2565b005b348015610061575f80fd5b5061006a61036d565b6040516100779190610572565b60405180910390f35b34801561008b575f80fd5b50610094610373565b005b6001151560045f3373ffffffffffffffffffffffffffffffffffffffff1673ffffffffffffffffffffffffffffffffffffffff1681526020019081526020015f205f9054906101000a900460ff16151514610126576040517f08c379a000000000000000000000000000000000000000000000000000000000815260040161011d906105e5565b60405180910390fd5b5f8054906101000a900473ffffffffffffffffffffffffffffffffffffffff1673ffffffffffffffffffffffffffffffffffffffff1663614619546040518163ffffffff1660e01b81526004015f604051808303815f87803b15801561018a575f80fd5b505af115801561019c573d5f803e3d5ffd5b50505050565b5f151560045f3373ffffffffffffffffffffffffffffffffffffffff1673ffffffffffffffffffffffffffffffffffffffff1681526020019081526020015f205f9054906101000a900460ff16151514610231576040517f08c379a00000000000000000000000000000000000000000000000000000000081526004016102289061064d565b60405180910390fd5b6002543411610275576040517f08c379a000000000000000000000000000000000000000000000000000000000815260040161026c906106db565b60405180910390fd5b60035f9054906101000a900473ffffffffffffffffffffffffffffffffffffffff1673ffffffffffffffffffffffffffffffffffffffff166323b872dd33306002546040518463ffffffff1660e01b81526004016102d593929190610738565b6020604051808303815f875af11580156102f1573d5f803e3d5ffd5b505050506040513d601f19601f8201168201806040525081019061031591906107a6565b50600160045f3373ffffffffffffffffffffffffffffffffffffffff1673ffffffffffffffffffffffffffffffffffffffff1681526020019081526020015f205f6101000a81548160ff021916908315150217905550565b60025481565b60015f9054906101000a900473ffffffffffffffffffffffffffffffffffffffff1673ffffffffffffffffffffffffffffffffffffffff163373ffffffffffffffffffffffffffffffffffffffff1614610402576040517f08c379a00000000000000000000000000000000000000000000000000000000081526004016103f990610841565b60405180910390fd5b60035f9054906101000a900473ffffffffffffffffffffffffffffffffffffffff1673ffffffffffffffffffffffffffffffffffffffff1663a9059cbb60015f9054906101000a900473ffffffffffffffffffffffffffffffffffffffff1660035f9054906101000a900473ffffffffffffffffffffffffffffffffffffffff1673ffffffffffffffffffffffffffffffffffffffff166370a08231306040518263ffffffff1660e01b81526004016104bb919061085f565b602060405180830381865afa1580156104d6573d5f803e3d5ffd5b505050506040513d601f19601f820116820180604052508101906104fa91906108a2565b6040518363ffffffff1660e01b81526004016105179291906108cd565b6020604051808303815f875af1158015610533573d5f803e3d5ffd5b505050506040513d601f19601f8201168201806040525081019061055791906107a6565b50565b5f819050919050565b61056c8161055a565b82525050565b5f6020820190506105855f830184610563565b92915050565b5f82825260208201905092915050565b7f596f75206d7573742073756273636962652066697273740000000000000000005f82015250565b5f6105cf60178361058b565b91506105da8261059b565b602082019050919050565b5f6020820190508181035f8301526105fc816105c3565b9050919050565b7f596f75206861766520616c7265616479207375627363726962656400000000005f82015250565b5f610637601b8361058b565b915061064282610603565b602082019050919050565b5f6020820190508181035f8301526106648161062b565b9050919050565b7f596f7520646f6e2774206861766520656e6f756768742066656520746f2070615f8201527f7920737562736372697074696f6e000000000000000000000000000000000000602082015250565b5f6106c5602e8361058b565b91506106d08261066b565b604082019050919050565b5f6020820190508181035f8301526106f2816106b9565b9050919050565b5f73ffffffffffffffffffffffffffffffffffffffff82169050919050565b5f610722826106f9565b9050919050565b61073281610718565b82525050565b5f60608201905061074b5f830186610729565b6107586020830185610729565b6107656040830184610563565b949350505050565b5f80fd5b5f8115159050919050565b61078581610771565b811461078f575f80fd5b50565b5f815190506107a08161077c565b92915050565b5f602082840312156107bb576107ba61076d565b5b5f6107c884828501610792565b91505092915050565b7f4f6e6c792074686520657865637574696f6e5365727665722063616e2063616c5f8201527f6c20746869732066756e6374696f6e0000000000000000000000000000000000602082015250565b5f61082b602f8361058b565b9150610836826107d1565b604082019050919050565b5f6020820190508181035f8301526108588161081f565b9050919050565b5f6020820190506108725f830184610729565b92915050565b6108818161055a565b811461088b575f80fd5b50565b5f8151905061089c81610878565b92915050565b5f602082840312156108b7576108b661076d565b5b5f6108c48482850161088e565b91505092915050565b5f6040820190506108e05f830185610729565b6108ed6020830184610563565b939250505056fea2646970667358221220aa5be9d42e84963bbd529fec540b626be7eb579a0591d37db9758b3fa17120d664736f6c63430008190033",
					"opcodes": "PUSH1 0x80 PUSH1 0x40 MSTORE CALLVALUE DUP1 ISZERO PUSH2 0xF JUMPI PUSH0 DUP1 REVERT JUMPDEST POP PUSH1 0x40 MLOAD PUSH2 0xB2C CODESIZE SUB DUP1 PUSH2 0xB2C DUP4 CODECOPY DUP2 DUP2 ADD PUSH1 0x40 MSTORE DUP2 ADD SWAP1 PUSH2 0x31 SWAP2 SWAP1 PUSH2 0x191 JUMP JUMPDEST DUP3 PUSH0 DUP1 PUSH2 0x100 EXP DUP2 SLOAD DUP2 PUSH20 0xFFFFFFFFFFFFFFFFFFFFFFFFFFFFFFFFFFFFFFFF MUL NOT AND SWAP1 DUP4 PUSH20 0xFFFFFFFFFFFFFFFFFFFFFFFFFFFFFFFFFFFFFFFF AND MUL OR SWAP1 SSTORE POP DUP2 PUSH1 0x1 PUSH0 PUSH2 0x100 EXP DUP2 SLOAD DUP2 PUSH20 0xFFFFFFFFFFFFFFFFFFFFFFFFFFFFFFFFFFFFFFFF MUL NOT AND SWAP1 DUP4 PUSH20 0xFFFFFFFFFFFFFFFFFFFFFFFFFFFFFFFFFFFFFFFF AND MUL OR SWAP1 SSTORE POP DUP1 PUSH1 0x2 DUP2 SWAP1 SSTORE POP DUP4 PUSH1 0x3 PUSH0 PUSH2 0x100 EXP DUP2 SLOAD DUP2 PUSH20 0xFFFFFFFFFFFFFFFFFFFFFFFFFFFFFFFFFFFFFFFF MUL NOT AND SWAP1 DUP4 PUSH20 0xFFFFFFFFFFFFFFFFFFFFFFFFFFFFFFFFFFFFFFFF AND MUL OR SWAP1 SSTORE POP POP POP POP POP PUSH2 0x1F5 JUMP JUMPDEST PUSH0 DUP1 REVERT JUMPDEST PUSH0 PUSH20 0xFFFFFFFFFFFFFFFFFFFFFFFFFFFFFFFFFFFFFFFF DUP3 AND SWAP1 POP SWAP2 SWAP1 POP JUMP JUMPDEST PUSH0 PUSH2 0x12D DUP3 PUSH2 0x104 JUMP JUMPDEST SWAP1 POP SWAP2 SWAP1 POP JUMP JUMPDEST PUSH2 0x13D DUP2 PUSH2 0x123 JUMP JUMPDEST DUP2 EQ PUSH2 0x147 JUMPI PUSH0 DUP1 REVERT JUMPDEST POP JUMP JUMPDEST PUSH0 DUP2 MLOAD SWAP1 POP PUSH2 0x158 DUP2 PUSH2 0x134 JUMP JUMPDEST SWAP3 SWAP2 POP POP JUMP JUMPDEST PUSH0 DUP2 SWAP1 POP SWAP2 SWAP1 POP JUMP JUMPDEST PUSH2 0x170 DUP2 PUSH2 0x15E JUMP JUMPDEST DUP2 EQ PUSH2 0x17A JUMPI PUSH0 DUP1 REVERT JUMPDEST POP JUMP JUMPDEST PUSH0 DUP2 MLOAD SWAP1 POP PUSH2 0x18B DUP2 PUSH2 0x167 JUMP JUMPDEST SWAP3 SWAP2 POP POP JUMP JUMPDEST PUSH0 DUP1 PUSH0 DUP1 PUSH1 0x80 DUP6 DUP8 SUB SLT ISZERO PUSH2 0x1A9 JUMPI PUSH2 0x1A8 PUSH2 0x100 JUMP JUMPDEST JUMPDEST PUSH0 PUSH2 0x1B6 DUP8 DUP3 DUP9 ADD PUSH2 0x14A JUMP JUMPDEST SWAP5 POP POP PUSH1 0x20 PUSH2 0x1C7 DUP8 DUP3 DUP9 ADD PUSH2 0x14A JUMP JUMPDEST SWAP4 POP POP PUSH1 0x40 PUSH2 0x1D8 DUP8 DUP3 DUP9 ADD PUSH2 0x14A JUMP JUMPDEST SWAP3 POP POP PUSH1 0x60 PUSH2 0x1E9 DUP8 DUP3 DUP9 ADD PUSH2 0x17D JUMP JUMPDEST SWAP2 POP POP SWAP3 SWAP6 SWAP2 SWAP5 POP SWAP3 POP JUMP JUMPDEST PUSH2 0x92A DUP1 PUSH2 0x202 PUSH0 CODECOPY PUSH0 RETURN INVALID PUSH1 0x80 PUSH1 0x40 MSTORE PUSH1 0x4 CALLDATASIZE LT PUSH2 0x3E JUMPI PUSH0 CALLDATALOAD PUSH1 0xE0 SHR DUP1 PUSH4 0x61461954 EQ PUSH2 0x42 JUMPI DUP1 PUSH4 0x8F449A05 EQ PUSH2 0x4C JUMPI DUP1 PUSH4 0xDDCA3F43 EQ PUSH2 0x56 JUMPI DUP1 PUSH4 0xFC0E3D90 EQ PUSH2 0x80 JUMPI JUMPDEST PUSH0 DUP1 REVERT JUMPDEST PUSH2 0x4A PUSH2 0x96 JUMP JUMPDEST STOP JUMPDEST PUSH2 0x54 PUSH2 0x1A2 JUMP JUMPDEST STOP JUMPDEST CALLVALUE DUP1 ISZERO PUSH2 0x61 JUMPI PUSH0 DUP1 REVERT JUMPDEST POP PUSH2 0x6A PUSH2 0x36D JUMP JUMPDEST PUSH1 0x40 MLOAD PUSH2 0x77 SWAP2 SWAP1 PUSH2 0x572 JUMP JUMPDEST PUSH1 0x40 MLOAD DUP1 SWAP2 SUB SWAP1 RETURN JUMPDEST CALLVALUE DUP1 ISZERO PUSH2 0x8B JUMPI PUSH0 DUP1 REVERT JUMPDEST POP PUSH2 0x94 PUSH2 0x373 JUMP JUMPDEST STOP JUMPDEST PUSH1 0x1 ISZERO ISZERO PUSH1 0x4 PUSH0 CALLER PUSH20 0xFFFFFFFFFFFFFFFFFFFFFFFFFFFFFFFFFFFFFFFF AND PUSH20 0xFFFFFFFFFFFFFFFFFFFFFFFFFFFFFFFFFFFFFFFF AND DUP2 MSTORE PUSH1 0x20 ADD SWAP1 DUP2 MSTORE PUSH1 0x20 ADD PUSH0 KECCAK256 PUSH0 SWAP1 SLOAD SWAP1 PUSH2 0x100 EXP SWAP1 DIV PUSH1 0xFF AND ISZERO ISZERO EQ PUSH2 0x126 JUMPI PUSH1 0x40 MLOAD PUSH32 0x8C379A000000000000000000000000000000000000000000000000000000000 DUP2 MSTORE PUSH1 0x4 ADD PUSH2 0x11D SWAP1 PUSH2 0x5E5 JUMP JUMPDEST PUSH1 0x40 MLOAD DUP1 SWAP2 SUB SWAP1 REVERT JUMPDEST PUSH0 DUP1 SLOAD SWAP1 PUSH2 0x100 EXP SWAP1 DIV PUSH20 0xFFFFFFFFFFFFFFFFFFFFFFFFFFFFFFFFFFFFFFFF AND PUSH20 0xFFFFFFFFFFFFFFFFFFFFFFFFFFFFFFFFFFFFFFFF AND PUSH4 0x61461954 PUSH1 0x40 MLOAD DUP2 PUSH4 0xFFFFFFFF AND PUSH1 0xE0 SHL DUP2 MSTORE PUSH1 0x4 ADD PUSH0 PUSH1 0x40 MLOAD DUP1 DUP4 SUB DUP2 PUSH0 DUP8 DUP1 EXTCODESIZE ISZERO DUP1 ISZERO PUSH2 0x18A JUMPI PUSH0 DUP1 REVERT JUMPDEST POP GAS CALL ISZERO DUP1 ISZERO PUSH2 0x19C JUMPI RETURNDATASIZE PUSH0 DUP1 RETURNDATACOPY RETURNDATASIZE PUSH0 REVERT JUMPDEST POP POP POP POP JUMP JUMPDEST PUSH0 ISZERO ISZERO PUSH1 0x4 PUSH0 CALLER PUSH20 0xFFFFFFFFFFFFFFFFFFFFFFFFFFFFFFFFFFFFFFFF AND PUSH20 0xFFFFFFFFFFFFFFFFFFFFFFFFFFFFFFFFFFFFFFFF AND DUP2 MSTORE PUSH1 0x20 ADD SWAP1 DUP2 MSTORE PUSH1 0x20 ADD PUSH0 KECCAK256 PUSH0 SWAP1 SLOAD SWAP1 PUSH2 0x100 EXP SWAP1 DIV PUSH1 0xFF AND ISZERO ISZERO EQ PUSH2 0x231 JUMPI PUSH1 0x40 MLOAD PUSH32 0x8C379A000000000000000000000000000000000000000000000000000000000 DUP2 MSTORE PUSH1 0x4 ADD PUSH2 0x228 SWAP1 PUSH2 0x64D JUMP JUMPDEST PUSH1 0x40 MLOAD DUP1 SWAP2 SUB SWAP1 REVERT JUMPDEST PUSH1 0x2 SLOAD CALLVALUE GT PUSH2 0x275 JUMPI PUSH1 0x40 MLOAD PUSH32 0x8C379A000000000000000000000000000000000000000000000000000000000 DUP2 MSTORE PUSH1 0x4 ADD PUSH2 0x26C SWAP1 PUSH2 0x6DB JUMP JUMPDEST PUSH1 0x40 MLOAD DUP1 SWAP2 SUB SWAP1 REVERT JUMPDEST PUSH1 0x3 PUSH0 SWAP1 SLOAD SWAP1 PUSH2 0x100 EXP SWAP1 DIV PUSH20 0xFFFFFFFFFFFFFFFFFFFFFFFFFFFFFFFFFFFFFFFF AND PUSH20 0xFFFFFFFFFFFFFFFFFFFFFFFFFFFFFFFFFFFFFFFF AND PUSH4 0x23B872DD CALLER ADDRESS PUSH1 0x2 SLOAD PUSH1 0x40 MLOAD DUP5 PUSH4 0xFFFFFFFF AND PUSH1 0xE0 SHL DUP2 MSTORE PUSH1 0x4 ADD PUSH2 0x2D5 SWAP4 SWAP3 SWAP2 SWAP1 PUSH2 0x738 JUMP JUMPDEST PUSH1 0x20 PUSH1 0x40 MLOAD DUP1 DUP4 SUB DUP2 PUSH0 DUP8 GAS CALL ISZERO DUP1 ISZERO PUSH2 0x2F1 JUMPI RETURNDATASIZE PUSH0 DUP1 RETURNDATACOPY RETURNDATASIZE PUSH0 REVERT JUMPDEST POP POP POP POP PUSH1 0x40 MLOAD RETURNDATASIZE PUSH1 0x1F NOT PUSH1 0x1F DUP3 ADD AND DUP3 ADD DUP1 PUSH1 0x40 MSTORE POP DUP2 ADD SWAP1 PUSH2 0x315 SWAP2 SWAP1 PUSH2 0x7A6 JUMP JUMPDEST POP PUSH1 0x1 PUSH1 0x4 PUSH0 CALLER PUSH20 0xFFFFFFFFFFFFFFFFFFFFFFFFFFFFFFFFFFFFFFFF AND PUSH20 0xFFFFFFFFFFFFFFFFFFFFFFFFFFFFFFFFFFFFFFFF AND DUP2 MSTORE PUSH1 0x20 ADD SWAP1 DUP2 MSTORE PUSH1 0x20 ADD PUSH0 KECCAK256 PUSH0 PUSH2 0x100 EXP DUP2 SLOAD DUP2 PUSH1 0xFF MUL NOT AND SWAP1 DUP4 ISZERO ISZERO MUL OR SWAP1 SSTORE POP JUMP JUMPDEST PUSH1 0x2 SLOAD DUP2 JUMP JUMPDEST PUSH1 0x1 PUSH0 SWAP1 SLOAD SWAP1 PUSH2 0x100 EXP SWAP1 DIV PUSH20 0xFFFFFFFFFFFFFFFFFFFFFFFFFFFFFFFFFFFFFFFF AND PUSH20 0xFFFFFFFFFFFFFFFFFFFFFFFFFFFFFFFFFFFFFFFF AND CALLER PUSH20 0xFFFFFFFFFFFFFFFFFFFFFFFFFFFFFFFFFFFFFFFF AND EQ PUSH2 0x402 JUMPI PUSH1 0x40 MLOAD PUSH32 0x8C379A000000000000000000000000000000000000000000000000000000000 DUP2 MSTORE PUSH1 0x4 ADD PUSH2 0x3F9 SWAP1 PUSH2 0x841 JUMP JUMPDEST PUSH1 0x40 MLOAD DUP1 SWAP2 SUB SWAP1 REVERT JUMPDEST PUSH1 0x3 PUSH0 SWAP1 SLOAD SWAP1 PUSH2 0x100 EXP SWAP1 DIV PUSH20 0xFFFFFFFFFFFFFFFFFFFFFFFFFFFFFFFFFFFFFFFF AND PUSH20 0xFFFFFFFFFFFFFFFFFFFFFFFFFFFFFFFFFFFFFFFF AND PUSH4 0xA9059CBB PUSH1 0x1 PUSH0 SWAP1 SLOAD SWAP1 PUSH2 0x100 EXP SWAP1 DIV PUSH20 0xFFFFFFFFFFFFFFFFFFFFFFFFFFFFFFFFFFFFFFFF AND PUSH1 0x3 PUSH0 SWAP1 SLOAD SWAP1 PUSH2 0x100 EXP SWAP1 DIV PUSH20 0xFFFFFFFFFFFFFFFFFFFFFFFFFFFFFFFFFFFFFFFF AND PUSH20 0xFFFFFFFFFFFFFFFFFFFFFFFFFFFFFFFFFFFFFFFF AND PUSH4 0x70A08231 ADDRESS PUSH1 0x40 MLOAD DUP3 PUSH4 0xFFFFFFFF AND PUSH1 0xE0 SHL DUP2 MSTORE PUSH1 0x4 ADD PUSH2 0x4BB SWAP2 SWAP1 PUSH2 0x85F JUMP JUMPDEST PUSH1 0x20 PUSH1 0x40 MLOAD DUP1 DUP4 SUB DUP2 DUP7 GAS STATICCALL ISZERO DUP1 ISZERO PUSH2 0x4D6 JUMPI RETURNDATASIZE PUSH0 DUP1 RETURNDATACOPY RETURNDATASIZE PUSH0 REVERT JUMPDEST POP POP POP POP PUSH1 0x40 MLOAD RETURNDATASIZE PUSH1 0x1F NOT PUSH1 0x1F DUP3 ADD AND DUP3 ADD DUP1 PUSH1 0x40 MSTORE POP DUP2 ADD SWAP1 PUSH2 0x4FA SWAP2 SWAP1 PUSH2 0x8A2 JUMP JUMPDEST PUSH1 0x40 MLOAD DUP4 PUSH4 0xFFFFFFFF AND PUSH1 0xE0 SHL DUP2 MSTORE PUSH1 0x4 ADD PUSH2 0x517 SWAP3 SWAP2 SWAP1 PUSH2 0x8CD JUMP JUMPDEST PUSH1 0x20 PUSH1 0x40 MLOAD DUP1 DUP4 SUB DUP2 PUSH0 DUP8 GAS CALL ISZERO DUP1 ISZERO PUSH2 0x533 JUMPI RETURNDATASIZE PUSH0 DUP1 RETURNDATACOPY RETURNDATASIZE PUSH0 REVERT JUMPDEST POP POP POP POP PUSH1 0x40 MLOAD RETURNDATASIZE PUSH1 0x1F NOT PUSH1 0x1F DUP3 ADD AND DUP3 ADD DUP1 PUSH1 0x40 MSTORE POP DUP2 ADD SWAP1 PUSH2 0x557 SWAP2 SWAP1 PUSH2 0x7A6 JUMP JUMPDEST POP JUMP JUMPDEST PUSH0 DUP2 SWAP1 POP SWAP2 SWAP1 POP JUMP JUMPDEST PUSH2 0x56C DUP2 PUSH2 0x55A JUMP JUMPDEST DUP3 MSTORE POP POP JUMP JUMPDEST PUSH0 PUSH1 0x20 DUP3 ADD SWAP1 POP PUSH2 0x585 PUSH0 DUP4 ADD DUP5 PUSH2 0x563 JUMP JUMPDEST SWAP3 SWAP2 POP POP JUMP JUMPDEST PUSH0 DUP3 DUP3 MSTORE PUSH1 0x20 DUP3 ADD SWAP1 POP SWAP3 SWAP2 POP POP JUMP JUMPDEST PUSH32 0x596F75206D757374207375627363696265206669727374000000000000000000 PUSH0 DUP3 ADD MSTORE POP JUMP JUMPDEST PUSH0 PUSH2 0x5CF PUSH1 0x17 DUP4 PUSH2 0x58B JUMP JUMPDEST SWAP2 POP PUSH2 0x5DA DUP3 PUSH2 0x59B JUMP JUMPDEST PUSH1 0x20 DUP3 ADD SWAP1 POP SWAP2 SWAP1 POP JUMP JUMPDEST PUSH0 PUSH1 0x20 DUP3 ADD SWAP1 POP DUP2 DUP2 SUB PUSH0 DUP4 ADD MSTORE PUSH2 0x5FC DUP2 PUSH2 0x5C3 JUMP JUMPDEST SWAP1 POP SWAP2 SWAP1 POP JUMP JUMPDEST PUSH32 0x596F75206861766520616C726561647920737562736372696265640000000000 PUSH0 DUP3 ADD MSTORE POP JUMP JUMPDEST PUSH0 PUSH2 0x637 PUSH1 0x1B DUP4 PUSH2 0x58B JUMP JUMPDEST SWAP2 POP PUSH2 0x642 DUP3 PUSH2 0x603 JUMP JUMPDEST PUSH1 0x20 DUP3 ADD SWAP1 POP SWAP2 SWAP1 POP JUMP JUMPDEST PUSH0 PUSH1 0x20 DUP3 ADD SWAP1 POP DUP2 DUP2 SUB PUSH0 DUP4 ADD MSTORE PUSH2 0x664 DUP2 PUSH2 0x62B JUMP JUMPDEST SWAP1 POP SWAP2 SWAP1 POP JUMP JUMPDEST PUSH32 0x596F7520646F6E2774206861766520656E6F756768742066656520746F207061 PUSH0 DUP3 ADD MSTORE PUSH32 0x7920737562736372697074696F6E000000000000000000000000000000000000 PUSH1 0x20 DUP3 ADD MSTORE POP JUMP JUMPDEST PUSH0 PUSH2 0x6C5 PUSH1 0x2E DUP4 PUSH2 0x58B JUMP JUMPDEST SWAP2 POP PUSH2 0x6D0 DUP3 PUSH2 0x66B JUMP JUMPDEST PUSH1 0x40 DUP3 ADD SWAP1 POP SWAP2 SWAP1 POP JUMP JUMPDEST PUSH0 PUSH1 0x20 DUP3 ADD SWAP1 POP DUP2 DUP2 SUB PUSH0 DUP4 ADD MSTORE PUSH2 0x6F2 DUP2 PUSH2 0x6B9 JUMP JUMPDEST SWAP1 POP SWAP2 SWAP1 POP JUMP JUMPDEST PUSH0 PUSH20 0xFFFFFFFFFFFFFFFFFFFFFFFFFFFFFFFFFFFFFFFF DUP3 AND SWAP1 POP SWAP2 SWAP1 POP JUMP JUMPDEST PUSH0 PUSH2 0x722 DUP3 PUSH2 0x6F9 JUMP JUMPDEST SWAP1 POP SWAP2 SWAP1 POP JUMP JUMPDEST PUSH2 0x732 DUP2 PUSH2 0x718 JUMP JUMPDEST DUP3 MSTORE POP POP JUMP JUMPDEST PUSH0 PUSH1 0x60 DUP3 ADD SWAP1 POP PUSH2 0x74B PUSH0 DUP4 ADD DUP7 PUSH2 0x729 JUMP JUMPDEST PUSH2 0x758 PUSH1 0x20 DUP4 ADD DUP6 PUSH2 0x729 JUMP JUMPDEST PUSH2 0x765 PUSH1 0x40 DUP4 ADD DUP5 PUSH2 0x563 JUMP JUMPDEST SWAP5 SWAP4 POP POP POP POP JUMP JUMPDEST PUSH0 DUP1 REVERT JUMPDEST PUSH0 DUP2 ISZERO ISZERO SWAP1 POP SWAP2 SWAP1 POP JUMP JUMPDEST PUSH2 0x785 DUP2 PUSH2 0x771 JUMP JUMPDEST DUP2 EQ PUSH2 0x78F JUMPI PUSH0 DUP1 REVERT JUMPDEST POP JUMP JUMPDEST PUSH0 DUP2 MLOAD SWAP1 POP PUSH2 0x7A0 DUP2 PUSH2 0x77C JUMP JUMPDEST SWAP3 SWAP2 POP POP JUMP JUMPDEST PUSH0 PUSH1 0x20 DUP3 DUP5 SUB SLT ISZERO PUSH2 0x7BB JUMPI PUSH2 0x7BA PUSH2 0x76D JUMP JUMPDEST JUMPDEST PUSH0 PUSH2 0x7C8 DUP5 DUP3 DUP6 ADD PUSH2 0x792 JUMP JUMPDEST SWAP2 POP POP SWAP3 SWAP2 POP POP JUMP JUMPDEST PUSH32 0x4F6E6C792074686520657865637574696F6E5365727665722063616E2063616C PUSH0 DUP3 ADD MSTORE PUSH32 0x6C20746869732066756E6374696F6E0000000000000000000000000000000000 PUSH1 0x20 DUP3 ADD MSTORE POP JUMP JUMPDEST PUSH0 PUSH2 0x82B PUSH1 0x2F DUP4 PUSH2 0x58B JUMP JUMPDEST SWAP2 POP PUSH2 0x836 DUP3 PUSH2 0x7D1 JUMP JUMPDEST PUSH1 0x40 DUP3 ADD SWAP1 POP SWAP2 SWAP1 POP JUMP JUMPDEST PUSH0 PUSH1 0x20 DUP3 ADD SWAP1 POP DUP2 DUP2 SUB PUSH0 DUP4 ADD MSTORE PUSH2 0x858 DUP2 PUSH2 0x81F JUMP JUMPDEST SWAP1 POP SWAP2 SWAP1 POP JUMP JUMPDEST PUSH0 PUSH1 0x20 DUP3 ADD SWAP1 POP PUSH2 0x872 PUSH0 DUP4 ADD DUP5 PUSH2 0x729 JUMP JUMPDEST SWAP3 SWAP2 POP POP JUMP JUMPDEST PUSH2 0x881 DUP2 PUSH2 0x55A JUMP JUMPDEST DUP2 EQ PUSH2 0x88B JUMPI PUSH0 DUP1 REVERT JUMPDEST POP JUMP JUMPDEST PUSH0 DUP2 MLOAD SWAP1 POP PUSH2 0x89C DUP2 PUSH2 0x878 JUMP JUMPDEST SWAP3 SWAP2 POP POP JUMP JUMPDEST PUSH0 PUSH1 0x20 DUP3 DUP5 SUB SLT ISZERO PUSH2 0x8B7 JUMPI PUSH2 0x8B6 PUSH2 0x76D JUMP JUMPDEST JUMPDEST PUSH0 PUSH2 0x8C4 DUP5 DUP3 DUP6 ADD PUSH2 0x88E JUMP JUMPDEST SWAP2 POP POP SWAP3 SWAP2 POP POP JUMP JUMPDEST PUSH0 PUSH1 0x40 DUP3 ADD SWAP1 POP PUSH2 0x8E0 PUSH0 DUP4 ADD DUP6 PUSH2 0x729 JUMP JUMPDEST PUSH2 0x8ED PUSH1 0x20 DUP4 ADD DUP5 PUSH2 0x563 JUMP JUMPDEST SWAP4 SWAP3 POP POP POP JUMP INVALID LOG2 PUSH5 0x6970667358 0x22 SLT KECCAK256 0xAA JUMPDEST 0xE9 0xD4 0x2E DUP5 SWAP7 EXTCODESIZE 0xBD MSTORE SWAP16 0xEC SLOAD SIGNEXTEND PUSH3 0x6BE7EB JUMPI SWAP11 SDIV SWAP2 0xD3 PUSH30 0xB9758B3FA17120D664736F6C634300081900330000000000000000000000 "
				},
				"gasEstimates": {
					"creation": {
						"codeDepositCost": "469200",
						"executionCost": "infinite",
						"totalCost": "infinite"
					},
					"external": {
						"execute()": "infinite",
						"fee()": "2447",
						"getStake()": "infinite",
						"subscribe()": "infinite"
					}
				},
				"methodIdentifiers": {
					"execute()": "61461954",
					"fee()": "ddca3f43",
					"getStake()": "fc0e3d90",
					"subscribe()": "8f449a05"
				}
			},
			"storageLayout": {
				"storage": [
					{
						"astId": 5,
						"contract": "DePinFilecoin/AIModelSubscribe.sol:AIModelSubscribe",
						"label": "aiModelContract",
						"offset": 0,
						"slot": "0",
						"type": "t_address"
					},
					{
						"astId": 7,
						"contract": "DePinFilecoin/AIModelSubscribe.sol:AIModelSubscribe",
						"label": "owner",
						"offset": 0,
						"slot": "1",
						"type": "t_address"
					},
					{
						"astId": 9,
						"contract": "DePinFilecoin/AIModelSubscribe.sol:AIModelSubscribe",
						"label": "fee",
						"offset": 0,
						"slot": "2",
						"type": "t_uint256"
					},
					{
						"astId": 12,
						"contract": "DePinFilecoin/AIModelSubscribe.sol:AIModelSubscribe",
						"label": "erc20",
						"offset": 0,
						"slot": "3",
						"type": "t_contract(IERC20)239"
					},
					{
						"astId": 16,
						"contract": "DePinFilecoin/AIModelSubscribe.sol:AIModelSubscribe",
						"label": "subscribers",
						"offset": 0,
						"slot": "4",
						"type": "t_mapping(t_address,t_bool)"
					}
				],
				"types": {
					"t_address": {
						"encoding": "inplace",
						"label": "address",
						"numberOfBytes": "20"
					},
					"t_bool": {
						"encoding": "inplace",
						"label": "bool",
						"numberOfBytes": "1"
					},
					"t_contract(IERC20)239": {
						"encoding": "inplace",
						"label": "contract IERC20",
						"numberOfBytes": "20"
					},
					"t_mapping(t_address,t_bool)": {
						"encoding": "mapping",
						"key": "t_address",
						"label": "mapping(address => bool)",
						"numberOfBytes": "32",
						"value": "t_bool"
					},
					"t_uint256": {
						"encoding": "inplace",
						"label": "uint256",
						"numberOfBytes": "32"
					}
				}
			},
			"userdoc": {
				"kind": "user",
				"methods": {},
				"version": 1
			}
		}
	}
}